{
  "_format": "hh-sol-artifact-1",
  "contractName": "AccessControl",
  "sourceName": "contracts/AccessControl.sol",
  "abi": [
    {
      "inputs": [
        {
          "internalType": "address",
          "name": "_registryAddress",
          "type": "address"
        }
      ],
      "stateMutability": "nonpayable",
      "type": "constructor"
    },
    {
      "anonymous": false,
      "inputs": [
        {
          "indexed": true,
          "internalType": "uint256",
          "name": "requestId",
          "type": "uint256"
        },
        {
          "indexed": true,
          "internalType": "address",
          "name": "doctor",
          "type": "address"
        },
        {
          "indexed": true,
          "internalType": "address",
          "name": "patient",
          "type": "address"
        },
        {
          "indexed": false,
          "internalType": "uint256",
          "name": "expiresAt",
          "type": "uint256"
        }
      ],
      "name": "AccessApproved",
      "type": "event"
    },
    {
      "anonymous": false,
      "inputs": [
        {
          "indexed": true,
          "internalType": "uint256",
          "name": "requestId",
          "type": "uint256"
        },
        {
          "indexed": true,
          "internalType": "address",
          "name": "doctor",
          "type": "address"
        },
        {
          "indexed": true,
          "internalType": "address",
          "name": "patient",
          "type": "address"
        },
        {
          "indexed": false,
          "internalType": "uint256",
          "name": "timestamp",
          "type": "uint256"
        }
      ],
      "name": "AccessRejected",
      "type": "event"
    },
    {
      "anonymous": false,
      "inputs": [
        {
          "indexed": true,
          "internalType": "uint256",
          "name": "requestId",
          "type": "uint256"
        },
        {
          "indexed": true,
          "internalType": "address",
          "name": "doctor",
          "type": "address"
        },
        {
          "indexed": true,
          "internalType": "address",
          "name": "patient",
          "type": "address"
        },
        {
          "indexed": false,
          "internalType": "string",
          "name": "purpose",
          "type": "string"
        },
        {
          "indexed": false,
          "internalType": "uint256",
          "name": "timestamp",
          "type": "uint256"
        }
      ],
      "name": "AccessRequested",
      "type": "event"
    },
    {
      "anonymous": false,
      "inputs": [
        {
          "indexed": true,
          "internalType": "uint256",
          "name": "requestId",
          "type": "uint256"
        },
        {
          "indexed": true,
          "internalType": "address",
          "name": "doctor",
          "type": "address"
        },
        {
          "indexed": true,
          "internalType": "address",
          "name": "patient",
          "type": "address"
        },
        {
          "indexed": false,
          "internalType": "uint256",
          "name": "timestamp",
          "type": "uint256"
        }
      ],
      "name": "AccessRevoked",
      "type": "event"
    },
    {
      "inputs": [],
      "name": "DEFAULT_ACCESS_DURATION",
      "outputs": [
        {
          "internalType": "uint256",
          "name": "",
          "type": "uint256"
        }
      ],
      "stateMutability": "view",
      "type": "function"
    },
    {
      "inputs": [
        {
          "internalType": "uint256",
          "name": "_requestId",
          "type": "uint256"
        },
        {
          "internalType": "uint256",
          "name": "_durationSecs",
          "type": "uint256"
        }
      ],
      "name": "approveAccess",
      "outputs": [],
      "stateMutability": "nonpayable",
      "type": "function"
    },
    {
      "inputs": [
        {
          "internalType": "address",
          "name": "_doctor",
          "type": "address"
        }
      ],
      "name": "getDoctorRequests",
      "outputs": [
        {
          "internalType": "uint256[]",
          "name": "",
          "type": "uint256[]"
        }
      ],
      "stateMutability": "view",
      "type": "function"
    },
    {
      "inputs": [
        {
          "internalType": "address",
          "name": "_patient",
          "type": "address"
        }
      ],
      "name": "getPatientRequests",
      "outputs": [
        {
          "internalType": "uint256[]",
          "name": "",
          "type": "uint256[]"
        }
      ],
      "stateMutability": "view",
      "type": "function"
    },
    {
      "inputs": [
        {
          "internalType": "uint256",
          "name": "_requestId",
          "type": "uint256"
        }
      ],
      "name": "getRequest",
      "outputs": [
        {
          "components": [
            {
              "internalType": "address",
              "name": "doctor",
              "type": "address"
            },
            {
              "internalType": "address",
              "name": "patient",
              "type": "address"
            },
            {
              "internalType": "uint256",
              "name": "requestedAt",
              "type": "uint256"
            },
            {
              "internalType": "uint256",
              "name": "approvedAt",
              "type": "uint256"
            },
            {
              "internalType": "uint256",
              "name": "expiresAt",
              "type": "uint256"
            },
            {
              "internalType": "enum AccessControl.AccessStatus",
              "name": "status",
              "type": "uint8"
            },
            {
              "internalType": "string",
              "name": "purpose",
              "type": "string"
            }
          ],
          "internalType": "struct AccessControl.AccessRequest",
          "name": "",
          "type": "tuple"
        }
      ],
      "stateMutability": "view",
      "type": "function"
    },
    {
      "inputs": [
        {
          "internalType": "address",
          "name": "_doctor",
          "type": "address"
        },
        {
          "internalType": "address",
          "name": "_patient",
          "type": "address"
        }
      ],
      "name": "hasValidAccess",
      "outputs": [
        {
          "internalType": "bool",
          "name": "",
          "type": "bool"
        }
      ],
      "stateMutability": "view",
      "type": "function"
    },
    {
      "inputs": [
        {
          "internalType": "uint256",
          "name": "_requestId",
          "type": "uint256"
        }
      ],
      "name": "rejectAccess",
      "outputs": [],
      "stateMutability": "nonpayable",
      "type": "function"
    },
    {
      "inputs": [
        {
          "internalType": "address",
          "name": "_patient",
          "type": "address"
        },
        {
          "internalType": "string",
          "name": "_purpose",
          "type": "string"
        }
      ],
      "name": "requestAccess",
      "outputs": [
        {
          "internalType": "uint256",
          "name": "requestId",
          "type": "uint256"
        }
      ],
      "stateMutability": "nonpayable",
      "type": "function"
    },
    {
      "inputs": [
        {
          "internalType": "uint256",
          "name": "_requestId",
          "type": "uint256"
        }
      ],
      "name": "revokeAccess",
      "outputs": [],
      "stateMutability": "nonpayable",
      "type": "function"
    }
  ],
  "bytecode": "0x60806040523480156200001157600080fd5b5060405162001fa738038062001fa78339818101604052810190620000379190620000e8565b806000806101000a81548173ffffffffffffffffffffffffffffffffffffffff021916908373ffffffffffffffffffffffffffffffffffffffff160217905550506200011a565b600080fd5b600073ffffffffffffffffffffffffffffffffffffffff82169050919050565b6000620000b08262000083565b9050919050565b620000c281620000a3565b8114620000ce57600080fd5b50565b600081519050620000e281620000b7565b92915050565b6000602082840312156200010157620001006200007e565b5b60006200011184828501620000d1565b91505092915050565b611e7d806200012a6000396000f3fe608060405234801561001057600080fd5b50600436106100935760003560e01c80637decccbf116100665780637decccbf14610146578063c58343ef14610176578063cde6c837146101a6578063e1b97d69146101c2578063e37b7fd1146101de57610093565b80632f6d4a59146100985780633d82c7ec146100c85780634631a455146100e65780635ce3ffc314610116575b600080fd5b6100b260048036038101906100ad91906112c7565b6101fa565b6040516100bf9190611340565b60405180910390f35b6100d06106e0565b6040516100dd9190611340565b60405180910390f35b61010060048036038101906100fb919061135b565b6106e7565b60405161010d9190611446565b60405180910390f35b610130600480360381019061012b9190611468565b61077e565b60405161013d91906114c3565b60405180910390f35b610160600480360381019061015b919061135b565b61087c565b60405161016d9190611446565b60405180910390f35b610190600480360381019061018b919061150a565b610913565b60405161019d91906116e9565b60405180910390f35b6101c060048036038101906101bb919061170b565b610ad7565b005b6101dc60048036038101906101d7919061150a565b610d3a565b005b6101f860048036038101906101f3919061150a565b610f57565b005b60008360008054906101000a900473ffffffffffffffffffffffffffffffffffffffff1673ffffffffffffffffffffffffffffffffffffffff1663c3c5a547826040518263ffffffff1660e01b8152600401610256919061175a565b602060405180830381865afa158015610273573d6000803e3d6000fd5b505050506040513d601f19601f8201168201806040525081019061029791906117a1565b6102d6576040517f08c379a00000000000000000000000000000000000000000000000000000000081526004016102cd9061182b565b60405180910390fd5b8473ffffffffffffffffffffffffffffffffffffffff163373ffffffffffffffffffffffffffffffffffffffff1603610344576040517f08c379a000000000000000000000000000000000000000000000000000000000815260040161033b906118bd565b60405180910390fd5b600160008154809291906103579061190c565b919050555060015491506040518060e001604052803373ffffffffffffffffffffffffffffffffffffffff1681526020018673ffffffffffffffffffffffffffffffffffffffff1681526020014281526020016000815260200160008152602001600060038111156103cc576103cb611546565b5b815260200185858080601f016020809104026020016040519081016040528093929190818152602001838380828437600081840152601f19601f820116905080830192505050505050508152506002600084815260200190815260200160002060008201518160000160006101000a81548173ffffffffffffffffffffffffffffffffffffffff021916908373ffffffffffffffffffffffffffffffffffffffff16021790555060208201518160010160006101000a81548173ffffffffffffffffffffffffffffffffffffffff021916908373ffffffffffffffffffffffffffffffffffffffff16021790555060408201518160020155606082015181600301556080820151816004015560a08201518160050160006101000a81548160ff0219169083600381111561050357610502611546565b5b021790555060c082015181600601908161051d9190611b8f565b5090505081600360008773ffffffffffffffffffffffffffffffffffffffff1673ffffffffffffffffffffffffffffffffffffffff16815260200190815260200160002060003373ffffffffffffffffffffffffffffffffffffffff1673ffffffffffffffffffffffffffffffffffffffff16815260200190815260200160002081905550600460008673ffffffffffffffffffffffffffffffffffffffff1673ffffffffffffffffffffffffffffffffffffffff168152602001908152602001600020829080600181540180825580915050600190039060005260206000200160009091909190915055600560003373ffffffffffffffffffffffffffffffffffffffff1673ffffffffffffffffffffffffffffffffffffffff1681526020019081526020016000208290806001815401808255809150506001900390600052602060002001600090919091909150558473ffffffffffffffffffffffffffffffffffffffff163373ffffffffffffffffffffffffffffffffffffffff16837fecbfe9b7df35ce2573b13b1de3b1e796a3066efd6b894faf0b9cef374f8b44fb8787426040516106d093929190611c9d565b60405180910390a4509392505050565b62278d0081565b6060600560008373ffffffffffffffffffffffffffffffffffffffff1673ffffffffffffffffffffffffffffffffffffffff16815260200190815260200160002080548060200260200160405190810160405280929190818152602001828054801561077257602002820191906000526020600020905b81548152602001906001019080831161075e575b50505050509050919050565b600080600360008473ffffffffffffffffffffffffffffffffffffffff1673ffffffffffffffffffffffffffffffffffffffff16815260200190815260200160002060008573ffffffffffffffffffffffffffffffffffffffff1673ffffffffffffffffffffffffffffffffffffffff16815260200190815260200160002054905060008103610812576000915050610876565b60006002600083815260200190815260200160002090506001600381111561083d5761083c611546565b5b8160050160009054906101000a900460ff16600381111561086157610860611546565b5b1480156108715750806004015442105b925050505b92915050565b6060600460008373ffffffffffffffffffffffffffffffffffffffff1673ffffffffffffffffffffffffffffffffffffffff16815260200190815260200160002080548060200260200160405190810160405280929190818152602001828054801561090757602002820191906000526020600020905b8154815260200190600101908083116108f3575b50505050509050919050565b61091b61117f565b600260008381526020019081526020016000206040518060e00160405290816000820160009054906101000a900473ffffffffffffffffffffffffffffffffffffffff1673ffffffffffffffffffffffffffffffffffffffff1673ffffffffffffffffffffffffffffffffffffffff1681526020016001820160009054906101000a900473ffffffffffffffffffffffffffffffffffffffff1673ffffffffffffffffffffffffffffffffffffffff1673ffffffffffffffffffffffffffffffffffffffff1681526020016002820154815260200160038201548152602001600482015481526020016005820160009054906101000a900460ff166003811115610a2857610a27611546565b5b6003811115610a3a57610a39611546565b5b8152602001600682018054610a4e906119b2565b80601f0160208091040260200160405190810160405280929190818152602001828054610a7a906119b2565b8015610ac75780601f10610a9c57610100808354040283529160200191610ac7565b820191906000526020600020905b815481529060010190602001808311610aaa57829003601f168201915b5050505050815250509050919050565b8160006003811115610aec57610aeb611546565b5b6002600083815260200190815260200160002060050160009054906101000a900460ff166003811115610b2257610b21611546565b5b14610b62576040517f08c379a0000000000000000000000000000000000000000000000000000000008152600401610b5990611d1b565b60405180910390fd5b823373ffffffffffffffffffffffffffffffffffffffff166002600083815260200190815260200160002060010160009054906101000a900473ffffffffffffffffffffffffffffffffffffffff1673ffffffffffffffffffffffffffffffffffffffff1614610c07576040517f08c379a0000000000000000000000000000000000000000000000000000000008152600401610bfe90611d87565b60405180910390fd5b6000808414610c165783610c1b565b62278d005b905060008142610c2b9190611da7565b9050600060026000888152602001908152602001600020905060018160050160006101000a81548160ff02191690836003811115610c6c57610c6b611546565b5b02179055504281600301819055508181600401819055508060010160009054906101000a900473ffffffffffffffffffffffffffffffffffffffff1673ffffffffffffffffffffffffffffffffffffffff168160000160009054906101000a900473ffffffffffffffffffffffffffffffffffffffff1673ffffffffffffffffffffffffffffffffffffffff16887f749ea682cf9d481ae7655441dabc5402d852aaf3a4f3fb44a5ed6fb83b70213c85604051610d299190611340565b60405180910390a450505050505050565b803373ffffffffffffffffffffffffffffffffffffffff166002600083815260200190815260200160002060010160009054906101000a900473ffffffffffffffffffffffffffffffffffffffff1673ffffffffffffffffffffffffffffffffffffffff1614610ddf576040517f08c379a0000000000000000000000000000000000000000000000000000000008152600401610dd690611d87565b60405180910390fd5b600060026000848152602001908152602001600020905060016003811115610e0a57610e09611546565b5b8160050160009054906101000a900460ff166003811115610e2e57610e2d611546565b5b14610e6e576040517f08c379a0000000000000000000000000000000000000000000000000000000008152600401610e6590611e27565b60405180910390fd5b60038160050160006101000a81548160ff02191690836003811115610e9657610e95611546565b5b02179055504281600401819055508060010160009054906101000a900473ffffffffffffffffffffffffffffffffffffffff1673ffffffffffffffffffffffffffffffffffffffff168160000160009054906101000a900473ffffffffffffffffffffffffffffffffffffffff1673ffffffffffffffffffffffffffffffffffffffff16847f44cc0386e2d27cf0a4d53aa262e89d728c4866b8c331db29caa559bd3721255742604051610f4a9190611340565b60405180910390a4505050565b8060006003811115610f6c57610f6b611546565b5b6002600083815260200190815260200160002060050160009054906101000a900460ff166003811115610fa257610fa1611546565b5b14610fe2576040517f08c379a0000000000000000000000000000000000000000000000000000000008152600401610fd990611d1b565b60405180910390fd5b813373ffffffffffffffffffffffffffffffffffffffff166002600083815260200190815260200160002060010160009054906101000a900473ffffffffffffffffffffffffffffffffffffffff1673ffffffffffffffffffffffffffffffffffffffff1614611087576040517f08c379a000000000000000000000000000000000000000000000000000000000815260040161107e90611d87565b60405180910390fd5b600060026000858152602001908152602001600020905060028160050160006101000a81548160ff021916908360038111156110c6576110c5611546565b5b02179055508060010160009054906101000a900473ffffffffffffffffffffffffffffffffffffffff1673ffffffffffffffffffffffffffffffffffffffff168160000160009054906101000a900473ffffffffffffffffffffffffffffffffffffffff1673ffffffffffffffffffffffffffffffffffffffff16857f0bb4d3395194ec891ae392cc15145464d7b1e193ceed1922d63e1afc86993b40426040516111719190611340565b60405180910390a450505050565b6040518060e00160405280600073ffffffffffffffffffffffffffffffffffffffff168152602001600073ffffffffffffffffffffffffffffffffffffffff168152602001600081526020016000815260200160008152602001600060038111156111ed576111ec611546565b5b8152602001606081525090565b600080fd5b600080fd5b600073ffffffffffffffffffffffffffffffffffffffff82169050919050565b600061122f82611204565b9050919050565b61123f81611224565b811461124a57600080fd5b50565b60008135905061125c81611236565b92915050565b600080fd5b600080fd5b600080fd5b60008083601f84011261128757611286611262565b5b8235905067ffffffffffffffff8111156112a4576112a3611267565b5b6020830191508360018202830111156112c0576112bf61126c565b5b9250929050565b6000806000604084860312156112e0576112df6111fa565b5b60006112ee8682870161124d565b935050602084013567ffffffffffffffff81111561130f5761130e6111ff565b5b61131b86828701611271565b92509250509250925092565b6000819050919050565b61133a81611327565b82525050565b60006020820190506113556000830184611331565b92915050565b600060208284031215611371576113706111fa565b5b600061137f8482850161124d565b91505092915050565b600081519050919050565b600082825260208201905092915050565b6000819050602082019050919050565b6113bd81611327565b82525050565b60006113cf83836113b4565b60208301905092915050565b6000602082019050919050565b60006113f382611388565b6113fd8185611393565b9350611408836113a4565b8060005b8381101561143957815161142088826113c3565b975061142b836113db565b92505060018101905061140c565b5085935050505092915050565b6000602082019050818103600083015261146081846113e8565b905092915050565b6000806040838503121561147f5761147e6111fa565b5b600061148d8582860161124d565b925050602061149e8582860161124d565b9150509250929050565b60008115159050919050565b6114bd816114a8565b82525050565b60006020820190506114d860008301846114b4565b92915050565b6114e781611327565b81146114f257600080fd5b50565b600081359050611504816114de565b92915050565b6000602082840312156115205761151f6111fa565b5b600061152e848285016114f5565b91505092915050565b61154081611224565b82525050565b7f4e487b7100000000000000000000000000000000000000000000000000000000600052602160045260246000fd5b6004811061158657611585611546565b5b50565b600081905061159782611575565b919050565b60006115a782611589565b9050919050565b6115b78161159c565b82525050565b600081519050919050565b600082825260208201905092915050565b60005b838110156115f75780820151818401526020810190506115dc565b60008484015250505050565b6000601f19601f8301169050919050565b600061161f826115bd565b61162981856115c8565b93506116398185602086016115d9565b61164281611603565b840191505092915050565b600060e0830160008301516116656000860182611537565b5060208301516116786020860182611537565b50604083015161168b60408601826113b4565b50606083015161169e60608601826113b4565b5060808301516116b160808601826113b4565b5060a08301516116c460a08601826115ae565b5060c083015184820360c08601526116dc8282611614565b9150508091505092915050565b60006020820190508181036000830152611703818461164d565b905092915050565b60008060408385031215611722576117216111fa565b5b6000611730858286016114f5565b9250506020611741858286016114f5565b9150509250929050565b61175481611224565b82525050565b600060208201905061176f600083018461174b565b92915050565b61177e816114a8565b811461178957600080fd5b50565b60008151905061179b81611775565b92915050565b6000602082840312156117b7576117b66111fa565b5b60006117c58482850161178c565b91505092915050565b600082825260208201905092915050565b7f4e6f74206120726567697374657265642070617469656e740000000000000000600082015250565b60006118156018836117ce565b9150611820826117df565b602082019050919050565b6000602082019050818103600083015261184481611808565b9050919050565b7f43616e6e6f7420726571756573742061636365737320746f206f776e2072656360008201527f6f72647300000000000000000000000000000000000000000000000000000000602082015250565b60006118a76024836117ce565b91506118b28261184b565b604082019050919050565b600060208201905081810360008301526118d68161189a565b9050919050565b7f4e487b7100000000000000000000000000000000000000000000000000000000600052601160045260246000fd5b600061191782611327565b91507fffffffffffffffffffffffffffffffffffffffffffffffffffffffffffffffff8203611949576119486118dd565b5b600182019050919050565b7f4e487b7100000000000000000000000000000000000000000000000000000000600052604160045260246000fd5b7f4e487b7100000000000000000000000000000000000000000000000000000000600052602260045260246000fd5b600060028204905060018216806119ca57607f821691505b6020821081036119dd576119dc611983565b5b50919050565b60008190508160005260206000209050919050565b60006020601f8301049050919050565b600082821b905092915050565b600060088302611a457fffffffffffffffffffffffffffffffffffffffffffffffffffffffffffffffff82611a08565b611a4f8683611a08565b95508019841693508086168417925050509392505050565b6000819050919050565b6000611a8c611a87611a8284611327565b611a67565b611327565b9050919050565b6000819050919050565b611aa683611a71565b611aba611ab282611a93565b848454611a15565b825550505050565b600090565b611acf611ac2565b611ada818484611a9d565b505050565b5b81811015611afe57611af3600082611ac7565b600181019050611ae0565b5050565b601f821115611b4357611b14816119e3565b611b1d846119f8565b81016020851015611b2c578190505b611b40611b38856119f8565b830182611adf565b50505b505050565b600082821c905092915050565b6000611b6660001984600802611b48565b1980831691505092915050565b6000611b7f8383611b55565b9150826002028217905092915050565b611b98826115bd565b67ffffffffffffffff811115611bb157611bb0611954565b5b611bbb82546119b2565b611bc6828285611b02565b600060209050601f831160018114611bf95760008415611be7578287015190505b611bf18582611b73565b865550611c59565b601f198416611c07866119e3565b60005b82811015611c2f57848901518255600182019150602085019450602081019050611c0a565b86831015611c4c5784890151611c48601f891682611b55565b8355505b6001600288020188555050505b505050505050565b82818337600083830152505050565b6000611c7c83856117ce565b9350611c89838584611c61565b611c9283611603565b840190509392505050565b60006040820190508181036000830152611cb8818587611c70565b9050611cc76020830184611331565b949350505050565b7f52657175657374206973206e6f742070656e64696e6700000000000000000000600082015250565b6000611d056016836117ce565b9150611d1082611ccf565b602082019050919050565b60006020820190508181036000830152611d3481611cf8565b9050919050565b7f4e6f74207468652070617469656e7420666f7220746869732072657175657374600082015250565b6000611d716020836117ce565b9150611d7c82611d3b565b602082019050919050565b60006020820190508181036000830152611da081611d64565b9050919050565b6000611db282611327565b9150611dbd83611327565b9250828201905080821115611dd557611dd46118dd565b5b92915050565b7f416363657373206e6f742063757272656e746c7920617070726f766564000000600082015250565b6000611e11601d836117ce565b9150611e1c82611ddb565b602082019050919050565b60006020820190508181036000830152611e4081611e04565b905091905056fea2646970667358221220054ed932158fc50c4d4cb83fed041f425532f7f231e8cf23b25c137cb582c2ad64736f6c63430008130033",
  "linkReferences": {},
  "deployedLinkReferences": {}
}