{
  "_format": "hh-sol-artifact-1",
  "contractName": "PatientRegistry",
  "sourceName": "contracts/PatientRegistry.sol",
  "abi": [
    {
      "anonymous": false,
      "inputs": [
        {
          "indexed": true,
          "internalType": "address",
          "name": "patient",
          "type": "address"
        },
        {
          "indexed": false,
          "internalType": "uint256",
          "name": "timestamp",
          "type": "uint256"
        }
      ],
      "name": "PatientRegistered",
      "type": "event"
    },
    {
      "anonymous": false,
      "inputs": [
        {
          "indexed": true,
          "internalType": "address",
          "name": "patient",
          "type": "address"
        },
        {
          "indexed": false,
          "internalType": "uint256",
          "name": "timestamp",
          "type": "uint256"
        }
      ],
      "name": "PatientUpdated",
      "type": "event"
    },
    {
      "inputs": [
        {
          "internalType": "address",
          "name": "_addr",
          "type": "address"
        }
      ],
      "name": "getPatient",
      "outputs": [
        {
          "internalType": "address",
          "name": "walletAddress",
          "type": "address"
        },
        {
          "internalType": "string",
          "name": "name",
          "type": "string"
        },
        {
          "internalType": "uint256",
          "name": "dateOfBirth",
          "type": "uint256"
        },
        {
          "internalType": "string",
          "name": "bloodType",
          "type": "string"
        },
        {
          "internalType": "uint256",
          "name": "registeredAt",
          "type": "uint256"
        }
      ],
      "stateMutability": "view",
      "type": "function"
    },
    {
      "inputs": [
        {
          "internalType": "address",
          "name": "_addr",
          "type": "address"
        }
      ],
      "name": "isRegistered",
      "outputs": [
        {
          "internalType": "bool",
          "name": "",
          "type": "bool"
        }
      ],
      "stateMutability": "view",
      "type": "function"
    },
    {
      "inputs": [
        {
          "internalType": "string",
          "name": "_name",
          "type": "string"
        },
        {
          "internalType": "uint256",
          "name": "_dateOfBirth",
          "type": "uint256"
        },
        {
          "internalType": "string",
          "name": "_bloodType",
          "type": "string"
        }
      ],
      "name": "register",
      "outputs": [],
      "stateMutability": "nonpayable",
      "type": "function"
    },
    {
      "inputs": [],
      "name": "totalPatients",
      "outputs": [
        {
          "internalType": "uint256",
          "name": "",
          "type": "uint256"
        }
      ],
      "stateMutability": "view",
      "type": "function"
    },
    {
      "inputs": [
        {
          "internalType": "string",
          "name": "_name",
          "type": "string"
        },
        {
          "internalType": "string",
          "name": "_bloodType",
          "type": "string"
        }
      ],
      "name": "updateProfile",
      "outputs": [],
      "stateMutability": "nonpayable",
      "type": "function"
    }
  ],
  "bytecode": "0x608060405234801561001057600080fd5b506110a2806100206000396000f3fe608060405234801561001057600080fd5b50600436106100575760003560e01c8063637a08321461005c578063b5368e2014610078578063c3c5a547146100ac578063c9d3cc6a146100dc578063deb5ef09146100f8575b600080fd5b610076600480360381019061007191906108ab565b610116565b005b610092600480360381019061008d919061099e565b610413565b6040516100a3959493929190610a79565b60405180910390f35b6100c660048036038101906100c1919061099e565b610652565b6040516100d39190610af5565b60405180910390f35b6100f660048036038101906100f19190610b10565b6106aa565b005b6101006107f9565b60405161010d9190610b91565b60405180910390f35b6000803373ffffffffffffffffffffffffffffffffffffffff1673ffffffffffffffffffffffffffffffffffffffff16815260200190815260200160002060040160009054906101000a900460ff16156101a5576040517f08c379a000000000000000000000000000000000000000000000000000000000815260040161019c90610bf8565b60405180910390fd5b6040518060c001604052803373ffffffffffffffffffffffffffffffffffffffff16815260200186868080601f016020809104026020016040519081016040528093929190818152602001838380828437600081840152601f19601f82011690508083019250505050505050815260200184815260200183838080601f016020809104026020016040519081016040528093929190818152602001838380828437600081840152601f19601f820116905080830192505050505050508152602001600115158152602001428152506000803373ffffffffffffffffffffffffffffffffffffffff1673ffffffffffffffffffffffffffffffffffffffff16815260200190815260200160002060008201518160000160006101000a81548173ffffffffffffffffffffffffffffffffffffffff021916908373ffffffffffffffffffffffffffffffffffffffff160217905550602082015181600101908161030d9190610e53565b5060408201518160020155606082015181600301908161032d9190610e53565b5060808201518160040160006101000a81548160ff02191690831515021790555060a082015181600501559050506001339080600181540180825580915050600190039060005260206000200160009091909190916101000a81548173ffffffffffffffffffffffffffffffffffffffff021916908373ffffffffffffffffffffffffffffffffffffffff1602179055503373ffffffffffffffffffffffffffffffffffffffff167f1a1d2aec173b297857456d20be2671ece280e73079451a2a16142e4f58751e5c426040516104049190610b91565b60405180910390a25050505050565b60006060600060606000856000808273ffffffffffffffffffffffffffffffffffffffff1673ffffffffffffffffffffffffffffffffffffffff16815260200190815260200160002060040160009054906101000a900460ff166104ac576040517f08c379a00000000000000000000000000000000000000000000000000000000081526004016104a390610f71565b60405180910390fd5b60008060008973ffffffffffffffffffffffffffffffffffffffff1673ffffffffffffffffffffffffffffffffffffffff16815260200190815260200160002090508060000160009054906101000a900473ffffffffffffffffffffffffffffffffffffffff1681600101826002015483600301846005015483805461053190610c76565b80601f016020809104026020016040519081016040528092919081815260200182805461055d90610c76565b80156105aa5780601f1061057f576101008083540402835291602001916105aa565b820191906000526020600020905b81548152906001019060200180831161058d57829003601f168201915b505050505093508180546105bd90610c76565b80601f01602080910402602001604051908101604052809291908181526020018280546105e990610c76565b80156106365780601f1061060b57610100808354040283529160200191610636565b820191906000526020600020905b81548152906001019060200180831161061957829003601f168201915b5050505050915096509650965096509650505091939590929450565b60008060008373ffffffffffffffffffffffffffffffffffffffff1673ffffffffffffffffffffffffffffffffffffffff16815260200190815260200160002060040160009054906101000a900460ff169050919050565b336000808273ffffffffffffffffffffffffffffffffffffffff1673ffffffffffffffffffffffffffffffffffffffff16815260200190815260200160002060040160009054906101000a900460ff16610739576040517f08c379a000000000000000000000000000000000000000000000000000000000815260040161073090610f71565b60405180910390fd5b60008060003373ffffffffffffffffffffffffffffffffffffffff1673ffffffffffffffffffffffffffffffffffffffff1681526020019081526020016000209050858582600101918261078e929190610f9c565b5083838260030191826107a2929190610f9c565b503373ffffffffffffffffffffffffffffffffffffffff167fa542767174a54517632aaf9d8b99f57cb71c60fb8989ae184191707b569e6914426040516107e99190610b91565b60405180910390a2505050505050565b6000600180549050905090565b600080fd5b600080fd5b600080fd5b600080fd5b600080fd5b60008083601f84011261083557610834610810565b5b8235905067ffffffffffffffff81111561085257610851610815565b5b60208301915083600182028301111561086e5761086d61081a565b5b9250929050565b6000819050919050565b61088881610875565b811461089357600080fd5b50565b6000813590506108a58161087f565b92915050565b6000806000806000606086880312156108c7576108c6610806565b5b600086013567ffffffffffffffff8111156108e5576108e461080b565b5b6108f18882890161081f565b9550955050602061090488828901610896565b935050604086013567ffffffffffffffff8111156109255761092461080b565b5b6109318882890161081f565b92509250509295509295909350565b600073ffffffffffffffffffffffffffffffffffffffff82169050919050565b600061096b82610940565b9050919050565b61097b81610960565b811461098657600080fd5b50565b60008135905061099881610972565b92915050565b6000602082840312156109b4576109b3610806565b5b60006109c284828501610989565b91505092915050565b6109d481610960565b82525050565b600081519050919050565b600082825260208201905092915050565b60005b83811015610a145780820151818401526020810190506109f9565b60008484015250505050565b6000601f19601f8301169050919050565b6000610a3c826109da565b610a4681856109e5565b9350610a568185602086016109f6565b610a5f81610a20565b840191505092915050565b610a7381610875565b82525050565b600060a082019050610a8e60008301886109cb565b8181036020830152610aa08187610a31565b9050610aaf6040830186610a6a565b8181036060830152610ac18185610a31565b9050610ad06080830184610a6a565b9695505050505050565b60008115159050919050565b610aef81610ada565b82525050565b6000602082019050610b0a6000830184610ae6565b92915050565b60008060008060408587031215610b2a57610b29610806565b5b600085013567ffffffffffffffff811115610b4857610b4761080b565b5b610b548782880161081f565b9450945050602085013567ffffffffffffffff811115610b7757610b7661080b565b5b610b838782880161081f565b925092505092959194509250565b6000602082019050610ba66000830184610a6a565b92915050565b7f416c726561647920726567697374657265640000000000000000000000000000600082015250565b6000610be26012836109e5565b9150610bed82610bac565b602082019050919050565b60006020820190508181036000830152610c1181610bd5565b9050919050565b7f4e487b7100000000000000000000000000000000000000000000000000000000600052604160045260246000fd5b7f4e487b7100000000000000000000000000000000000000000000000000000000600052602260045260246000fd5b60006002820490506001821680610c8e57607f821691505b602082108103610ca157610ca0610c47565b5b50919050565b60008190508160005260206000209050919050565b60006020601f8301049050919050565b600082821b905092915050565b600060088302610d097fffffffffffffffffffffffffffffffffffffffffffffffffffffffffffffffff82610ccc565b610d138683610ccc565b95508019841693508086168417925050509392505050565b6000819050919050565b6000610d50610d4b610d4684610875565b610d2b565b610875565b9050919050565b6000819050919050565b610d6a83610d35565b610d7e610d7682610d57565b848454610cd9565b825550505050565b600090565b610d93610d86565b610d9e818484610d61565b505050565b5b81811015610dc257610db7600082610d8b565b600181019050610da4565b5050565b601f821115610e0757610dd881610ca7565b610de184610cbc565b81016020851015610df0578190505b610e04610dfc85610cbc565b830182610da3565b50505b505050565b600082821c905092915050565b6000610e2a60001984600802610e0c565b1980831691505092915050565b6000610e438383610e19565b9150826002028217905092915050565b610e5c826109da565b67ffffffffffffffff811115610e7557610e74610c18565b5b610e7f8254610c76565b610e8a828285610dc6565b600060209050601f831160018114610ebd5760008415610eab578287015190505b610eb58582610e37565b865550610f1d565b601f198416610ecb86610ca7565b60005b82811015610ef357848901518255600182019150602085019450602081019050610ece565b86831015610f105784890151610f0c601f891682610e19565b8355505b6001600288020188555050505b505050505050565b7f50617469656e74206e6f74207265676973746572656400000000000000000000600082015250565b6000610f5b6016836109e5565b9150610f6682610f25565b602082019050919050565b60006020820190508181036000830152610f8a81610f4e565b9050919050565b600082905092915050565b610fa68383610f91565b67ffffffffffffffff811115610fbf57610fbe610c18565b5b610fc98254610c76565b610fd4828285610dc6565b6000601f8311600181146110035760008415610ff1578287013590505b610ffb8582610e37565b865550611063565b601f19841661101186610ca7565b60005b8281101561103957848901358255600182019150602085019450602081019050611014565b868310156110565784890135611052601f891682610e19565b8355505b6001600288020188555050505b5050505050505056fea26469706673582212203a82efd216644c22f1ee3bd907456f9d091912ead83b0faf8717d20b1ac55d2464736f6c63430008130033",
  "linkReferences": {},
  "deployedLinkReferences": {}
}