{
  "_format": "hh-sol-artifact-1",
  "contractName": "RecordRegistry",
  "sourceName": "contracts/RecordRegistry.sol",
  "abi": [
    {
      "inputs": [
        {
          "internalType": "address",
          "name": "_registryAddr",
          "type": "address"
        },
        {
          "internalType": "address",
          "name": "_accessControlAddr",
          "type": "address"
        }
      ],
      "stateMutability": "nonpayable",
      "type": "constructor"
    },
    {
      "anonymous": false,
      "inputs": [
        {
          "indexed": true,
          "internalType": "uint256",
          "name": "recordId",
          "type": "uint256"
        },
        {
          "indexed": true,
          "internalType": "address",
          "name": "patient",
          "type": "address"
        },
        {
          "indexed": false,
          "internalType": "uint256",
          "name": "timestamp",
          "type": "uint256"
        }
      ],
      "name": "RecordRetracted",
      "type": "event"
    },
    {
      "anonymous": false,
      "inputs": [
        {
          "indexed": true,
          "internalType": "uint256",
          "name": "recordId",
          "type": "uint256"
        },
        {
          "indexed": true,
          "internalType": "address",
          "name": "patient",
          "type": "address"
        },
        {
          "indexed": true,
          "internalType": "address",
          "name": "uploadedBy",
          "type": "address"
        },
        {
          "indexed": false,
          "internalType": "string",
          "name": "ipfsHash",
          "type": "string"
        },
        {
          "indexed": false,
          "internalType": "enum RecordRegistry.RecordType",
          "name": "recordType",
          "type": "uint8"
        },
        {
          "indexed": false,
          "internalType": "uint256",
          "name": "timestamp",
          "type": "uint256"
        }
      ],
      "name": "RecordUploaded",
      "type": "event"
    },
    {
      "inputs": [
        {
          "internalType": "address",
          "name": "_patient",
          "type": "address"
        }
      ],
      "name": "getPatientRecordIds",
      "outputs": [
        {
          "internalType": "uint256[]",
          "name": "",
          "type": "uint256[]"
        }
      ],
      "stateMutability": "view",
      "type": "function"
    },
    {
      "inputs": [
        {
          "internalType": "uint256",
          "name": "_recordId",
          "type": "uint256"
        }
      ],
      "name": "getRecord",
      "outputs": [
        {
          "components": [
            {
              "internalType": "uint256",
              "name": "recordId",
              "type": "uint256"
            },
            {
              "internalType": "address",
              "name": "patient",
              "type": "address"
            },
            {
              "internalType": "address",
              "name": "uploadedBy",
              "type": "address"
            },
            {
              "internalType": "string",
              "name": "ipfsHash",
              "type": "string"
            },
            {
              "internalType": "enum RecordRegistry.RecordType",
              "name": "recordType",
              "type": "uint8"
            },
            {
              "internalType": "string",
              "name": "description",
              "type": "string"
            },
            {
              "internalType": "uint256",
              "name": "uploadedAt",
              "type": "uint256"
            },
            {
              "internalType": "bool",
              "name": "isValid",
              "type": "bool"
            }
          ],
          "internalType": "struct RecordRegistry.MedicalRecord",
          "name": "",
          "type": "tuple"
        }
      ],
      "stateMutability": "view",
      "type": "function"
    },
    {
      "inputs": [
        {
          "internalType": "uint256",
          "name": "_recordId",
          "type": "uint256"
        }
      ],
      "name": "retractRecord",
      "outputs": [],
      "stateMutability": "nonpayable",
      "type": "function"
    },
    {
      "inputs": [],
      "name": "totalRecords",
      "outputs": [
        {
          "internalType": "uint256",
          "name": "",
          "type": "uint256"
        }
      ],
      "stateMutability": "view",
      "type": "function"
    },
    {
      "inputs": [
        {
          "internalType": "address",
          "name": "_patient",
          "type": "address"
        },
        {
          "internalType": "string",
          "name": "_ipfsHash",
          "type": "string"
        },
        {
          "internalType": "enum RecordRegistry.RecordType",
          "name": "_recordType",
          "type": "uint8"
        },
        {
          "internalType": "string",
          "name": "_description",
          "type": "string"
        }
      ],
      "name": "uploadRecord",
      "outputs": [
        {
          "internalType": "uint256",
          "name": "recordId",
          "type": "uint256"
        }
      ],
      "stateMutability": "nonpayable",
      "type": "function"
    },
    {
      "inputs": [
        {
          "internalType": "uint256",
          "name": "_recordId",
          "type": "uint256"
        },
        {
          "internalType": "string",
          "name": "_ipfsHash",
          "type": "string"
        }
      ],
      "name": "verifyRecord",
      "outputs": [
        {
          "internalType": "bool",
          "name": "isMatch",
          "type": "bool"
        },
        {
          "internalType": "bool",
          "name": "isValid",
          "type": "bool"
        }
      ],
      "stateMutability": "view",
      "type": "function"
    }
  ],
  "bytecode": "0x60806040523480156200001157600080fd5b5060405162001f8038038062001f8083398181016040528101906200003791906200012a565b816000806101000a81548173ffffffffffffffffffffffffffffffffffffffff021916908373ffffffffffffffffffffffffffffffffffffffff16021790555080600160006101000a81548173ffffffffffffffffffffffffffffffffffffffff021916908373ffffffffffffffffffffffffffffffffffffffff160217905550505062000171565b600080fd5b600073ffffffffffffffffffffffffffffffffffffffff82169050919050565b6000620000f282620000c5565b9050919050565b6200010481620000e5565b81146200011057600080fd5b50565b6000815190506200012481620000f9565b92915050565b60008060408385031215620001445762000143620000c0565b5b6000620001548582860162000113565b9250506020620001678582860162000113565b9150509250929050565b611dff80620001816000396000f3fe608060405234801561001057600080fd5b50600436106100625760003560e01c806303e9e60914610067578063125f89741461009757806337b84ef7146100b55780636248204e146100e55780637e4f7e6314610115578063b3d1333714610131575b600080fd5b610081600480360381019061007c9190610f79565b610162565b60405161008e91906111cf565b60405180910390f35b61009f610521565b6040516100ac9190611200565b60405180910390f35b6100cf60048036038101906100ca91906112d1565b61052b565b6040516100dc9190611200565b60405180910390f35b6100ff60048036038101906100fa9190611378565b610b27565b60405161010c9190611454565b60405180910390f35b61012f600480360381019061012a9190610f79565b610cdf565b005b61014b60048036038101906101469190611476565b610e49565b6040516101599291906114e5565b60405180910390f35b61016a610eb4565b6003600083815260200190815260200160002060010160009054906101000a900473ffffffffffffffffffffffffffffffffffffffff1660008173ffffffffffffffffffffffffffffffffffffffff163373ffffffffffffffffffffffffffffffffffffffff161490506000600160009054906101000a900473ffffffffffffffffffffffffffffffffffffffff1673ffffffffffffffffffffffffffffffffffffffff16635ce3ffc333856040518363ffffffff1660e01b815260040161023392919061151d565b602060405180830381865afa158015610250573d6000803e3d6000fd5b505050506040513d601f19601f820116820180604052508101906102749190611572565b9050818061027f5750805b6102be576040517f08c379a00000000000000000000000000000000000000000000000000000000081526004016102b590611622565b60405180910390fd5b6003600086815260200190815260200160002060405180610100016040529081600082015481526020016001820160009054906101000a900473ffffffffffffffffffffffffffffffffffffffff1673ffffffffffffffffffffffffffffffffffffffff1673ffffffffffffffffffffffffffffffffffffffff1681526020016002820160009054906101000a900473ffffffffffffffffffffffffffffffffffffffff1673ffffffffffffffffffffffffffffffffffffffff1673ffffffffffffffffffffffffffffffffffffffff1681526020016003820180546103a390611671565b80601f01602080910402602001604051908101604052809291908181526020018280546103cf90611671565b801561041c5780601f106103f15761010080835404028352916020019161041c565b820191906000526020600020905b8154815290600101906020018083116103ff57829003601f168201915b505050505081526020016004820160009054906101000a900460ff16600581111561044a57610449611086565b5b600581111561045c5761045b611086565b5b815260200160058201805461047090611671565b80601f016020809104026020016040519081016040528092919081815260200182805461049c90611671565b80156104e95780601f106104be576101008083540402835291602001916104e9565b820191906000526020600020905b8154815290600101906020018083116104cc57829003601f168201915b50505050508152602001600682015481526020016007820160009054906101000a900460ff1615151515815250509350505050919050565b6000600254905090565b60008660008054906101000a900473ffffffffffffffffffffffffffffffffffffffff1673ffffffffffffffffffffffffffffffffffffffff1663c3c5a547826040518263ffffffff1660e01b815260040161058791906116a2565b602060405180830381865afa1580156105a4573d6000803e3d6000fd5b505050506040513d601f19601f820116820180604052508101906105c89190611572565b610607576040517f08c379a00000000000000000000000000000000000000000000000000000000081526004016105fe90611709565b60405180910390fd5b8760008173ffffffffffffffffffffffffffffffffffffffff163373ffffffffffffffffffffffffffffffffffffffff161490506000600160009054906101000a900473ffffffffffffffffffffffffffffffffffffffff1673ffffffffffffffffffffffffffffffffffffffff16635ce3ffc333856040518363ffffffff1660e01b815260040161069a92919061151d565b602060405180830381865afa1580156106b7573d6000803e3d6000fd5b505050506040513d601f19601f820116820180604052508101906106db9190611572565b905081806106e65750805b610725576040517f08c379a000000000000000000000000000000000000000000000000000000000815260040161071c90611622565b60405180910390fd5b60008a8a90501161076b576040517f08c379a000000000000000000000000000000000000000000000000000000000815260040161076290611775565b60405180910390fd5b600060058b8b60405161077f9291906117d4565b908152602001604051809103902054146107ce576040517f08c379a00000000000000000000000000000000000000000000000000000000081526004016107c590611839565b60405180910390fd5b600260008154809291906107e190611888565b919050555060025494506040518061010001604052808681526020018c73ffffffffffffffffffffffffffffffffffffffff1681526020013373ffffffffffffffffffffffffffffffffffffffff1681526020018b8b8080601f016020809104026020016040519081016040528093929190818152602001838380828437600081840152601f19601f82011690508083019250505050505050815260200189600581111561089257610891611086565b5b815260200188888080601f016020809104026020016040519081016040528093929190818152602001838380828437600081840152601f19601f82011690508083019250505050505050815260200142815260200160011515815250600360008781526020019081526020016000206000820151816000015560208201518160010160006101000a81548173ffffffffffffffffffffffffffffffffffffffff021916908373ffffffffffffffffffffffffffffffffffffffff16021790555060408201518160020160006101000a81548173ffffffffffffffffffffffffffffffffffffffff021916908373ffffffffffffffffffffffffffffffffffffffff16021790555060608201518160030190816109ae9190611aab565b5060808201518160040160006101000a81548160ff021916908360058111156109da576109d9611086565b5b021790555060a08201518160050190816109f49190611aab565b5060c0820151816006015560e08201518160070160006101000a81548160ff021916908315150217905550905050600460008c73ffffffffffffffffffffffffffffffffffffffff1673ffffffffffffffffffffffffffffffffffffffff1681526020019081526020016000208590806001815401808255809150506001900390600052602060002001600090919091909150558460058b8b604051610a9b9291906117d4565b9081526020016040518091039020819055503373ffffffffffffffffffffffffffffffffffffffff168b73ffffffffffffffffffffffffffffffffffffffff16867f6357be75d732c8c95e7f0b1823e5a41da6a21eeaca6f96e81c3bd4a1ee9ee2848d8d8d42604051610b119493929190611bb9565b60405180910390a4505050509695505050505050565b60608160008173ffffffffffffffffffffffffffffffffffffffff163373ffffffffffffffffffffffffffffffffffffffff161490506000600160009054906101000a900473ffffffffffffffffffffffffffffffffffffffff1673ffffffffffffffffffffffffffffffffffffffff16635ce3ffc333856040518363ffffffff1660e01b8152600401610bbc92919061151d565b602060405180830381865afa158015610bd9573d6000803e3d6000fd5b505050506040513d601f19601f82011682018060405250810190610bfd9190611572565b90508180610c085750805b610c47576040517f08c379a0000000000000000000000000000000000000000000000000000000008152600401610c3e90611622565b60405180910390fd5b600460008673ffffffffffffffffffffffffffffffffffffffff1673ffffffffffffffffffffffffffffffffffffffff168152602001908152602001600020805480602002602001604051908101604052809291908181526020018280548015610cd057602002820191906000526020600020905b815481526020019060010190808311610cbc575b50505050509350505050919050565b60006003600083815260200190815260200160002090503373ffffffffffffffffffffffffffffffffffffffff168160010160009054906101000a900473ffffffffffffffffffffffffffffffffffffffff1673ffffffffffffffffffffffffffffffffffffffff1614610d88576040517f08c379a0000000000000000000000000000000000000000000000000000000008152600401610d7f90611c45565b60405180910390fd5b8060070160009054906101000a900460ff16610dd9576040517f08c379a0000000000000000000000000000000000000000000000000000000008152600401610dd090611cb1565b60405180910390fd5b60008160070160006101000a81548160ff0219169083151502179055503373ffffffffffffffffffffffffffffffffffffffff16827fbf1ddbf1bdf06cec3fb7760c84de816e4126311ebab24ad333c347f6d3772aba42604051610e3d9190611200565b60405180910390a35050565b60008060006003600087815260200190815260200160002090508484604051610e73929190611d01565b604051809103902081600301604051610e8c9190611db2565b60405180910390201492508060070160009054906101000a900460ff16915050935093915050565b60405180610100016040528060008152602001600073ffffffffffffffffffffffffffffffffffffffff168152602001600073ffffffffffffffffffffffffffffffffffffffff1681526020016060815260200160006005811115610f1c57610f1b611086565b5b815260200160608152602001600081526020016000151581525090565b600080fd5b600080fd5b6000819050919050565b610f5681610f43565b8114610f6157600080fd5b50565b600081359050610f7381610f4d565b92915050565b600060208284031215610f8f57610f8e610f39565b5b6000610f9d84828501610f64565b91505092915050565b610faf81610f43565b82525050565b600073ffffffffffffffffffffffffffffffffffffffff82169050919050565b6000610fe082610fb5565b9050919050565b610ff081610fd5565b82525050565b600081519050919050565b600082825260208201905092915050565b60005b83811015611030578082015181840152602081019050611015565b60008484015250505050565b6000601f19601f8301169050919050565b600061105882610ff6565b6110628185611001565b9350611072818560208601611012565b61107b8161103c565b840191505092915050565b7f4e487b7100000000000000000000000000000000000000000000000000000000600052602160045260246000fd5b600681106110c6576110c5611086565b5b50565b60008190506110d7826110b5565b919050565b60006110e7826110c9565b9050919050565b6110f7816110dc565b82525050565b60008115159050919050565b611112816110fd565b82525050565b6000610100830160008301516111316000860182610fa6565b5060208301516111446020860182610fe7565b5060408301516111576040860182610fe7565b506060830151848203606086015261116f828261104d565b915050608083015161118460808601826110ee565b5060a083015184820360a086015261119c828261104d565b91505060c08301516111b160c0860182610fa6565b5060e08301516111c460e0860182611109565b508091505092915050565b600060208201905081810360008301526111e98184611118565b905092915050565b6111fa81610f43565b82525050565b600060208201905061121560008301846111f1565b92915050565b61122481610fd5565b811461122f57600080fd5b50565b6000813590506112418161121b565b92915050565b600080fd5b600080fd5b600080fd5b60008083601f84011261126c5761126b611247565b5b8235905067ffffffffffffffff8111156112895761128861124c565b5b6020830191508360018202830111156112a5576112a4611251565b5b9250929050565b600681106112b957600080fd5b50565b6000813590506112cb816112ac565b92915050565b600080600080600080608087890312156112ee576112ed610f39565b5b60006112fc89828a01611232565b965050602087013567ffffffffffffffff81111561131d5761131c610f3e565b5b61132989828a01611256565b9550955050604061133c89828a016112bc565b935050606087013567ffffffffffffffff81111561135d5761135c610f3e565b5b61136989828a01611256565b92509250509295509295509295565b60006020828403121561138e5761138d610f39565b5b600061139c84828501611232565b91505092915050565b600081519050919050565b600082825260208201905092915050565b6000819050602082019050919050565b60006113dd8383610fa6565b60208301905092915050565b6000602082019050919050565b6000611401826113a5565b61140b81856113b0565b9350611416836113c1565b8060005b8381101561144757815161142e88826113d1565b9750611439836113e9565b92505060018101905061141a565b5085935050505092915050565b6000602082019050818103600083015261146e81846113f6565b905092915050565b60008060006040848603121561148f5761148e610f39565b5b600061149d86828701610f64565b935050602084013567ffffffffffffffff8111156114be576114bd610f3e565b5b6114ca86828701611256565b92509250509250925092565b6114df816110fd565b82525050565b60006040820190506114fa60008301856114d6565b61150760208301846114d6565b9392505050565b61151781610fd5565b82525050565b6000604082019050611532600083018561150e565b61153f602083018461150e565b9392505050565b61154f816110fd565b811461155a57600080fd5b50565b60008151905061156c81611546565b92915050565b60006020828403121561158857611587610f39565b5b60006115968482850161155d565b91505092915050565b600082825260208201905092915050565b7f4e6f7420617574686f726973656420746f20616363657373207468697320706160008201527f7469656e742773207265636f7264730000000000000000000000000000000000602082015250565b600061160c602f8361159f565b9150611617826115b0565b604082019050919050565b6000602082019050818103600083015261163b816115ff565b9050919050565b7f4e487b7100000000000000000000000000000000000000000000000000000000600052602260045260246000fd5b6000600282049050600182168061168957607f821691505b60208210810361169c5761169b611642565b5b50919050565b60006020820190506116b7600083018461150e565b92915050565b7f4e6f74206120726567697374657265642070617469656e740000000000000000600082015250565b60006116f360188361159f565b91506116fe826116bd565b602082019050919050565b60006020820190508181036000830152611722816116e6565b9050919050565b7f4950465320686173682072657175697265640000000000000000000000000000600082015250565b600061175f60128361159f565b915061176a82611729565b602082019050919050565b6000602082019050818103600083015261178e81611752565b9050919050565b600081905092915050565b82818337600083830152505050565b60006117bb8385611795565b93506117c88385846117a0565b82840190509392505050565b60006117e18284866117af565b91508190509392505050565b7f5265636f726420616c72656164792075706c6f61646564000000000000000000600082015250565b600061182360178361159f565b915061182e826117ed565b602082019050919050565b6000602082019050818103600083015261185281611816565b9050919050565b7f4e487b7100000000000000000000000000000000000000000000000000000000600052601160045260246000fd5b600061189382610f43565b91507fffffffffffffffffffffffffffffffffffffffffffffffffffffffffffffffff82036118c5576118c4611859565b5b600182019050919050565b7f4e487b7100000000000000000000000000000000000000000000000000000000600052604160045260246000fd5b60008190508160005260206000209050919050565b60006020601f8301049050919050565b600082821b905092915050565b6000600883026119617fffffffffffffffffffffffffffffffffffffffffffffffffffffffffffffffff82611924565b61196b8683611924565b95508019841693508086168417925050509392505050565b6000819050919050565b60006119a86119a361199e84610f43565b611983565b610f43565b9050919050565b6000819050919050565b6119c28361198d565b6119d66119ce826119af565b848454611931565b825550505050565b600090565b6119eb6119de565b6119f68184846119b9565b505050565b5b81811015611a1a57611a0f6000826119e3565b6001810190506119fc565b5050565b601f821115611a5f57611a30816118ff565b611a3984611914565b81016020851015611a48578190505b611a5c611a5485611914565b8301826119fb565b50505b505050565b600082821c905092915050565b6000611a8260001984600802611a64565b1980831691505092915050565b6000611a9b8383611a71565b9150826002028217905092915050565b611ab482610ff6565b67ffffffffffffffff811115611acd57611acc6118d0565b5b611ad78254611671565b611ae2828285611a1e565b600060209050601f831160018114611b155760008415611b03578287015190505b611b0d8582611a8f565b865550611b75565b601f198416611b23866118ff565b60005b82811015611b4b57848901518255600182019150602085019450602081019050611b26565b86831015611b685784890151611b64601f891682611a71565b8355505b6001600288020188555050505b505050505050565b6000611b89838561159f565b9350611b968385846117a0565b611b9f8361103c565b840190509392505050565b611bb3816110dc565b82525050565b60006060820190508181036000830152611bd4818688611b7d565b9050611be36020830185611baa565b611bf060408301846111f1565b95945050505050565b7f4f6e6c79207468652070617469656e742063616e207265747261637400000000600082015250565b6000611c2f601c8361159f565b9150611c3a82611bf9565b602082019050919050565b60006020820190508181036000830152611c5e81611c22565b9050919050565b7f416c726561647920726574726163746564000000000000000000000000000000600082015250565b6000611c9b60118361159f565b9150611ca682611c65565b602082019050919050565b60006020820190508181036000830152611cca81611c8e565b9050919050565b600081905092915050565b6000611ce88385611cd1565b9350611cf58385846117a0565b82840190509392505050565b6000611d0e828486611cdc565b91508190509392505050565b60008190508160005260206000209050919050565b60008154611d3c81611671565b611d468186611cd1565b94506001821660008114611d615760018114611d7657611da9565b60ff1983168652811515820286019350611da9565b611d7f85611d1a565b60005b83811015611da157815481890152600182019150602081019050611d82565b838801955050505b50505092915050565b6000611dbe8284611d2f565b91508190509291505056fea2646970667358221220532b8f19e13fbdaf2ec13b05536b69a509a5af95f1a4998534f940356012834064736f6c63430008130033",
  "linkReferences": {},
  "deployedLinkReferences": {}
}