{
  "_format": "hh-sol-artifact-1",
  "contractName": "EmergencyAccess",
  "sourceName": "contracts/EmergencyAccess.sol",
  "abi": [
    {
      "inputs": [
        {
          "internalType": "address",
          "name": "_registryAddr",
          "type": "address"
        }
      ],
      "stateMutability": "nonpayable",
      "type": "constructor"
    },
    {
      "anonymous": false,
      "inputs": [
        {
          "indexed": true,
          "internalType": "uint256",
          "name": "eventId",
          "type": "uint256"
        },
        {
          "indexed": true,
          "internalType": "address",
          "name": "responder",
          "type": "address"
        },
        {
          "indexed": true,
          "internalType": "address",
          "name": "patient",
          "type": "address"
        },
        {
          "indexed": false,
          "internalType": "string",
          "name": "reason",
          "type": "string"
        },
        {
          "indexed": false,
          "internalType": "uint256",
          "name": "expiresAt",
          "type": "uint256"
        }
      ],
      "name": "EmergencyAccessed",
      "type": "event"
    },
    {
      "anonymous": false,
      "inputs": [
        {
          "indexed": true,
          "internalType": "uint256",
          "name": "eventId",
          "type": "uint256"
        },
        {
          "indexed": false,
          "internalType": "uint256",
          "name": "timestamp",
          "type": "uint256"
        }
      ],
      "name": "EmergencyExpired",
      "type": "event"
    },
    {
      "anonymous": false,
      "inputs": [
        {
          "indexed": true,
          "internalType": "address",
          "name": "patient",
          "type": "address"
        },
        {
          "indexed": true,
          "internalType": "address",
          "name": "responder",
          "type": "address"
        },
        {
          "indexed": false,
          "internalType": "uint256",
          "name": "timestamp",
          "type": "uint256"
        }
      ],
      "name": "ResponderRemoved",
      "type": "event"
    },
    {
      "anonymous": false,
      "inputs": [
        {
          "indexed": true,
          "internalType": "address",
          "name": "patient",
          "type": "address"
        },
        {
          "indexed": true,
          "internalType": "address",
          "name": "responder",
          "type": "address"
        },
        {
          "indexed": false,
          "internalType": "uint256",
          "name": "timestamp",
          "type": "uint256"
        }
      ],
      "name": "ResponderTrusted",
      "type": "event"
    },
    {
      "inputs": [],
      "name": "EMERGENCY_DURATION",
      "outputs": [
        {
          "internalType": "uint256",
          "name": "",
          "type": "uint256"
        }
      ],
      "stateMutability": "view",
      "type": "function"
    },
    {
      "inputs": [
        {
          "internalType": "address",
          "name": "_responder",
          "type": "address"
        }
      ],
      "name": "addTrustedResponder",
      "outputs": [],
      "stateMutability": "nonpayable",
      "type": "function"
    },
    {
      "inputs": [
        {
          "internalType": "uint256",
          "name": "_eventId",
          "type": "uint256"
        }
      ],
      "name": "getEmergencyEvent",
      "outputs": [
        {
          "components": [
            {
              "internalType": "uint256",
              "name": "eventId",
              "type": "uint256"
            },
            {
              "internalType": "address",
              "name": "responder",
              "type": "address"
            },
            {
              "internalType": "address",
              "name": "patient",
              "type": "address"
            },
            {
              "internalType": "uint256",
              "name": "accessedAt",
              "type": "uint256"
            },
            {
              "internalType": "uint256",
              "name": "expiresAt",
              "type": "uint256"
            },
            {
              "internalType": "string",
              "name": "reason",
              "type": "string"
            },
            {
              "internalType": "bool",
              "name": "isActive",
              "type": "bool"
            }
          ],
          "internalType": "struct EmergencyAccess.EmergencyEvent",
          "name": "",
          "type": "tuple"
        }
      ],
      "stateMutability": "view",
      "type": "function"
    },
    {
      "inputs": [
        {
          "internalType": "address",
          "name": "_responder",
          "type": "address"
        },
        {
          "internalType": "address",
          "name": "_patient",
          "type": "address"
        }
      ],
      "name": "hasEmergencyAccess",
      "outputs": [
        {
          "internalType": "bool",
          "name": "",
          "type": "bool"
        }
      ],
      "stateMutability": "view",
      "type": "function"
    },
    {
      "inputs": [
        {
          "internalType": "address",
          "name": "_patient",
          "type": "address"
        },
        {
          "internalType": "string",
          "name": "_reason",
          "type": "string"
        }
      ],
      "name": "invokeEmergencyAccess",
      "outputs": [
        {
          "internalType": "uint256",
          "name": "eventId",
          "type": "uint256"
        }
      ],
      "stateMutability": "nonpayable",
      "type": "function"
    },
    {
      "inputs": [
        {
          "internalType": "address",
          "name": "_patient",
          "type": "address"
        },
        {
          "internalType": "address",
          "name": "_responder",
          "type": "address"
        }
      ],
      "name": "isTrustedResponder",
      "outputs": [
        {
          "internalType": "bool",
          "name": "",
          "type": "bool"
        }
      ],
      "stateMutability": "view",
      "type": "function"
    },
    {
      "inputs": [
        {
          "internalType": "address",
          "name": "_responder",
          "type": "address"
        }
      ],
      "name": "removeTrustedResponder",
      "outputs": [],
      "stateMutability": "nonpayable",
      "type": "function"
    },
    {
      "inputs": [],
      "name": "totalEvents",
      "outputs": [
        {
          "internalType": "uint256",
          "name": "",
          "type": "uint256"
        }
      ],
      "stateMutability": "view",
      "type": "function"
    }
  ],
  "bytecode": "0x60806040523480156200001157600080fd5b506040516200196a3803806200196a8339818101604052810190620000379190620000e8565b806000806101000a81548173ffffffffffffffffffffffffffffffffffffffff021916908373ffffffffffffffffffffffffffffffffffffffff160217905550506200011a565b600080fd5b600073ffffffffffffffffffffffffffffffffffffffff82169050919050565b6000620000b08262000083565b9050919050565b620000c281620000a3565b8114620000ce57600080fd5b50565b600081519050620000e281620000b7565b92915050565b6000602082840312156200010157620001006200007e565b5b60006200011184828501620000d1565b91505092915050565b611840806200012a6000396000f3fe608060405234801561001057600080fd5b50600436106100885760003560e01c8063aa2011721161005b578063aa20117214610139578063b8a07ea214610155578063ba87068614610173578063e355d22c1461019157610088565b80630a19309f1461008d57806390218ee8146100a957806391198eb5146100d95780639199dd6614610109575b600080fd5b6100a760048036038101906100a29190610d9e565b6101c1565b005b6100c360048036038101906100be9190610dcb565b6102be565b6040516100d09190610e26565b60405180910390f35b6100f360048036038101906100ee9190610e77565b610395565b6040516101009190610ffd565b60405180910390f35b610123600480360381019061011e9190610dcb565b610539565b6040516101309190610e26565b60405180910390f35b610153600480360381019061014e9190610d9e565b6105cd565b005b61015d610810565b60405161016a919061102e565b60405180910390f35b61017b610816565b604051610188919061102e565b60405180910390f35b6101ab60048036038101906101a691906110ae565b610820565b6040516101b8919061102e565b60405180910390f35b6000600160003373ffffffffffffffffffffffffffffffffffffffff1673ffffffffffffffffffffffffffffffffffffffff16815260200190815260200160002060008373ffffffffffffffffffffffffffffffffffffffff1673ffffffffffffffffffffffffffffffffffffffff16815260200190815260200160002060006101000a81548160ff0219169083151502179055508073ffffffffffffffffffffffffffffffffffffffff163373ffffffffffffffffffffffffffffffffffffffff167fbd88f4bc5d42a9998fe7d06b9af235805f4c29c0a5b7d169c351b2ce278ee9d5426040516102b3919061102e565b60405180910390a350565b600080600460008573ffffffffffffffffffffffffffffffffffffffff1673ffffffffffffffffffffffffffffffffffffffff16815260200190815260200160002060008473ffffffffffffffffffffffffffffffffffffffff1673ffffffffffffffffffffffffffffffffffffffff1681526020019081526020016000205490506000810361035257600091505061038f565b60006003600083815260200190815260200160002090508060060160009054906101000a900460ff16801561038a5750806004015442105b925050505b92915050565b61039d610ccb565b600360008381526020019081526020016000206040518060e0016040529081600082015481526020016001820160009054906101000a900473ffffffffffffffffffffffffffffffffffffffff1673ffffffffffffffffffffffffffffffffffffffff1673ffffffffffffffffffffffffffffffffffffffff1681526020016002820160009054906101000a900473ffffffffffffffffffffffffffffffffffffffff1673ffffffffffffffffffffffffffffffffffffffff1673ffffffffffffffffffffffffffffffffffffffff16815260200160038201548152602001600482015481526020016005820180546104959061113d565b80601f01602080910402602001604051908101604052809291908181526020018280546104c19061113d565b801561050e5780601f106104e35761010080835404028352916020019161050e565b820191906000526020600020905b8154815290600101906020018083116104f157829003601f168201915b505050505081526020016006820160009054906101000a900460ff1615151515815250509050919050565b6000600160008473ffffffffffffffffffffffffffffffffffffffff1673ffffffffffffffffffffffffffffffffffffffff16815260200190815260200160002060008373ffffffffffffffffffffffffffffffffffffffff1673ffffffffffffffffffffffffffffffffffffffff16815260200190815260200160002060009054906101000a900460ff16905092915050565b60008054906101000a900473ffffffffffffffffffffffffffffffffffffffff1673ffffffffffffffffffffffffffffffffffffffff1663c3c5a547336040518263ffffffff1660e01b8152600401610626919061117d565b602060405180830381865afa158015610643573d6000803e3d6000fd5b505050506040513d601f19601f8201168201806040525081019061066791906111c4565b6106a6576040517f08c379a000000000000000000000000000000000000000000000000000000000815260040161069d9061124e565b60405180910390fd5b3373ffffffffffffffffffffffffffffffffffffffff168173ffffffffffffffffffffffffffffffffffffffff1603610714576040517f08c379a000000000000000000000000000000000000000000000000000000000815260040161070b906112ba565b60405180910390fd5b60018060003373ffffffffffffffffffffffffffffffffffffffff1673ffffffffffffffffffffffffffffffffffffffff16815260200190815260200160002060008373ffffffffffffffffffffffffffffffffffffffff1673ffffffffffffffffffffffffffffffffffffffff16815260200190815260200160002060006101000a81548160ff0219169083151502179055508073ffffffffffffffffffffffffffffffffffffffff163373ffffffffffffffffffffffffffffffffffffffff167f067c2ed60246660367dc4e131547154dc66c08401a13d11f41495ceb8120b8c842604051610805919061102e565b60405180910390a350565b61546081565b6000600254905090565b60008060009054906101000a900473ffffffffffffffffffffffffffffffffffffffff1673ffffffffffffffffffffffffffffffffffffffff1663c3c5a547856040518263ffffffff1660e01b815260040161087c919061117d565b602060405180830381865afa158015610899573d6000803e3d6000fd5b505050506040513d601f19601f820116820180604052508101906108bd91906111c4565b6108fc576040517f08c379a00000000000000000000000000000000000000000000000000000000081526004016108f390611326565b60405180910390fd5b600160008573ffffffffffffffffffffffffffffffffffffffff1673ffffffffffffffffffffffffffffffffffffffff16815260200190815260200160002060003373ffffffffffffffffffffffffffffffffffffffff1673ffffffffffffffffffffffffffffffffffffffff16815260200190815260200160002060009054906101000a900460ff166109c5576040517f08c379a00000000000000000000000000000000000000000000000000000000081526004016109bc906113b8565b60405180910390fd5b60008383905011610a0b576040517f08c379a0000000000000000000000000000000000000000000000000000000008152600401610a0290611424565b60405180910390fd5b60026000815480929190610a1e90611473565b91905055506002549050600061546042610a3891906114bb565b90506040518060e001604052808381526020013373ffffffffffffffffffffffffffffffffffffffff1681526020018673ffffffffffffffffffffffffffffffffffffffff16815260200142815260200182815260200185858080601f016020809104026020016040519081016040528093929190818152602001838380828437600081840152601f19601f82011690508083019250505050505050815260200160011515815250600360008481526020019081526020016000206000820151816000015560208201518160010160006101000a81548173ffffffffffffffffffffffffffffffffffffffff021916908373ffffffffffffffffffffffffffffffffffffffff16021790555060408201518160020160006101000a81548173ffffffffffffffffffffffffffffffffffffffff021916908373ffffffffffffffffffffffffffffffffffffffff160217905550606082015181600301556080820151816004015560a0820151816005019081610bb491906116ca565b5060c08201518160060160006101000a81548160ff02191690831515021790555090505081600460003373ffffffffffffffffffffffffffffffffffffffff1673ffffffffffffffffffffffffffffffffffffffff16815260200190815260200160002060008773ffffffffffffffffffffffffffffffffffffffff1673ffffffffffffffffffffffffffffffffffffffff168152602001908152602001600020819055508473ffffffffffffffffffffffffffffffffffffffff163373ffffffffffffffffffffffffffffffffffffffff16837f06017aada6b71991081724798395fe31283510207272152c8407f6ed9ec21ff6878786604051610cbb939291906117d8565b60405180910390a4509392505050565b6040518060e0016040528060008152602001600073ffffffffffffffffffffffffffffffffffffffff168152602001600073ffffffffffffffffffffffffffffffffffffffff1681526020016000815260200160008152602001606081526020016000151581525090565b600080fd5b600080fd5b600073ffffffffffffffffffffffffffffffffffffffff82169050919050565b6000610d6b82610d40565b9050919050565b610d7b81610d60565b8114610d8657600080fd5b50565b600081359050610d9881610d72565b92915050565b600060208284031215610db457610db3610d36565b5b6000610dc284828501610d89565b91505092915050565b60008060408385031215610de257610de1610d36565b5b6000610df085828601610d89565b9250506020610e0185828601610d89565b9150509250929050565b60008115159050919050565b610e2081610e0b565b82525050565b6000602082019050610e3b6000830184610e17565b92915050565b6000819050919050565b610e5481610e41565b8114610e5f57600080fd5b50565b600081359050610e7181610e4b565b92915050565b600060208284031215610e8d57610e8c610d36565b5b6000610e9b84828501610e62565b91505092915050565b610ead81610e41565b82525050565b610ebc81610d60565b82525050565b600081519050919050565b600082825260208201905092915050565b60005b83811015610efc578082015181840152602081019050610ee1565b60008484015250505050565b6000601f19601f8301169050919050565b6000610f2482610ec2565b610f2e8185610ecd565b9350610f3e818560208601610ede565b610f4781610f08565b840191505092915050565b610f5b81610e0b565b82525050565b600060e083016000830151610f796000860182610ea4565b506020830151610f8c6020860182610eb3565b506040830151610f9f6040860182610eb3565b506060830151610fb26060860182610ea4565b506080830151610fc56080860182610ea4565b5060a083015184820360a0860152610fdd8282610f19565b91505060c0830151610ff260c0860182610f52565b508091505092915050565b600060208201905081810360008301526110178184610f61565b905092915050565b61102881610e41565b82525050565b6000602082019050611043600083018461101f565b92915050565b600080fd5b600080fd5b600080fd5b60008083601f84011261106e5761106d611049565b5b8235905067ffffffffffffffff81111561108b5761108a61104e565b5b6020830191508360018202830111156110a7576110a6611053565b5b9250929050565b6000806000604084860312156110c7576110c6610d36565b5b60006110d586828701610d89565b935050602084013567ffffffffffffffff8111156110f6576110f5610d3b565b5b61110286828701611058565b92509250509250925092565b7f4e487b7100000000000000000000000000000000000000000000000000000000600052602260045260246000fd5b6000600282049050600182168061115557607f821691505b6020821081036111685761116761110e565b5b50919050565b61117781610d60565b82525050565b6000602082019050611192600083018461116e565b92915050565b6111a181610e0b565b81146111ac57600080fd5b50565b6000815190506111be81611198565b92915050565b6000602082840312156111da576111d9610d36565b5b60006111e8848285016111af565b91505092915050565b600082825260208201905092915050565b7f4e6f74206120726567697374657265642070617469656e740000000000000000600082015250565b60006112386018836111f1565b915061124382611202565b602082019050919050565b600060208201905081810360008301526112678161122b565b9050919050565b7f43616e6e6f742061646420796f757273656c6600000000000000000000000000600082015250565b60006112a46013836111f1565b91506112af8261126e565b602082019050919050565b600060208201905081810360008301526112d381611297565b9050919050565b7f50617469656e74206e6f74207265676973746572656400000000000000000000600082015250565b60006113106016836111f1565b915061131b826112da565b602082019050919050565b6000602082019050818103600083015261133f81611303565b9050919050565b7f4e6f742061207472757374656420726573706f6e64657220666f72207468697360008201527f2070617469656e74000000000000000000000000000000000000000000000000602082015250565b60006113a26028836111f1565b91506113ad82611346565b604082019050919050565b600060208201905081810360008301526113d181611395565b9050919050565b7f526561736f6e2072657175697265640000000000000000000000000000000000600082015250565b600061140e600f836111f1565b9150611419826113d8565b602082019050919050565b6000602082019050818103600083015261143d81611401565b9050919050565b7f4e487b7100000000000000000000000000000000000000000000000000000000600052601160045260246000fd5b600061147e82610e41565b91507fffffffffffffffffffffffffffffffffffffffffffffffffffffffffffffffff82036114b0576114af611444565b5b600182019050919050565b60006114c682610e41565b91506114d183610e41565b92508282019050808211156114e9576114e8611444565b5b92915050565b7f4e487b7100000000000000000000000000000000000000000000000000000000600052604160045260246000fd5b60008190508160005260206000209050919050565b60006020601f8301049050919050565b600082821b905092915050565b6000600883026115807fffffffffffffffffffffffffffffffffffffffffffffffffffffffffffffffff82611543565b61158a8683611543565b95508019841693508086168417925050509392505050565b6000819050919050565b60006115c76115c26115bd84610e41565b6115a2565b610e41565b9050919050565b6000819050919050565b6115e1836115ac565b6115f56115ed826115ce565b848454611550565b825550505050565b600090565b61160a6115fd565b6116158184846115d8565b505050565b5b818110156116395761162e600082611602565b60018101905061161b565b5050565b601f82111561167e5761164f8161151e565b61165884611533565b81016020851015611667578190505b61167b61167385611533565b83018261161a565b50505b505050565b600082821c905092915050565b60006116a160001984600802611683565b1980831691505092915050565b60006116ba8383611690565b9150826002028217905092915050565b6116d382610ec2565b67ffffffffffffffff8111156116ec576116eb6114ef565b5b6116f6825461113d565b61170182828561163d565b600060209050601f8311600181146117345760008415611722578287015190505b61172c85826116ae565b865550611794565b601f1984166117428661151e565b60005b8281101561176a57848901518255600182019150602085019450602081019050611745565b868310156117875784890151611783601f891682611690565b8355505b6001600288020188555050505b505050505050565b82818337600083830152505050565b60006117b783856111f1565b93506117c483858461179c565b6117cd83610f08565b840190509392505050565b600060408201905081810360008301526117f38185876117ab565b9050611802602083018461101f565b94935050505056fea2646970667358221220df15a40c51a617dfc728848e3f83244b07b7e96b6a25105d7505846022de703664736f6c63430008130033",
  "linkReferences": {},
  "deployedLinkReferences": {}
}